:020000040800F2
:10000000A80600206D0100087501000877010008AE
:10001000790100087B0100087D0100080000000054
:100020000000000000000000000000007F01000848
:10003000810100080000000083010008850100081C
:100040008701000887010008870100088701000870
:100050008701000887010008870100088701000860
:100060008701000887010008870100088701000850
:100070008701000887010008870100088701000840
:100080008701000887010008870100088701000830
:100090008701000887010008870100088701000820
:1000A00087010008FD030008870100088701000898
:1000B0008701000887010008870100088701000800
:1000C00087010008870100088701000887010008F0
:1000D00087010008D505000887010008870100088E
:1000E00087010008870100088701000800F002F876
:1000F00000F02CF80AA090E8000C82448344AAF196
:100100000107DA4501D100F021F8AFF2090EBAE893
:100110000F0013F0010F18BFFB1A43F0010318473B
:100120008C1700009C1700000023002400250026E7
:10013000103A28BF78C1FBD8520728BF30C148BF4A
:100140000B6070471FB51FBD10B510BD00F031F832
:100150001146FFF7F7FF00F08FFC00F04FF803B4F3
:10016000FFF7F2FF03BC00F057F800000948804792
:1001700009480047FEE7FEE7FEE7FEE7FEE7FEE789
:10018000FEE7FEE7FEE7FEE704480549054A064BA1
:1001900070470000A5030008ED000008A80000203B
:1001A000A8060020A8020020A8020020704770477F
:1001B0007047754600F02CF8AE4605006946534678
:1001C00020F00700854618B020B5FFF7DDFFBDE839
:1001D00020404FF000064FF000074FF000084FF0AE
:1001E000000BAC46ACE8C009ACE8C009ACE8C009FB
:1001F000ACE8C00921F007018D46704710B50446F0
:10020000AFF300802046BDE81040FFF7A8BF000014
:10021000004870470000002001491820ABBEFEE7EF
:100220002600020070470000B0B542F210050446F7
:10023000C4F2020500F01EF855F8040CC007FBD10B
:10024000286840F0020028606C60286840F0400098
:10025000286000BF55F8040CC007FBD1286820F0C7
:1002600001002860286820F002002860B0BD00006E
:100270000088704742F2040040F22311C4F20200E9
:10028000C4F26751016048F6AB11CCF6EF51016042
:100290007047000070B542F210060C460546C4F2E5
:1002A0000206FFF7E7FF306840F00100306000BF52
:1002B00056F8040CC007FBD12C8000BF56F8040C84
:1002C000C007FBD130680A2120F00100306040F205
:1002D0007400C2F20000016070BD000080B500F043
:1002E00001F880BD82B041F204000021C4F2020096
:1002F0000191009150F8041C41F4803140F8041C35
:1003000050F8041C01F40031009101990131019170
:10031000009919B90199B1F5A06FF1D150F8041CF9
:10032000890354BF0021012100910099012936D190
:1003300042F20001C4F202010A6842F010020A60AF
:100340000A6822F007020A600A6842F002020A60A4
:100350000168016001680160016841F48061016029
:10036000016821F47C110160016841F4E811016029
:1003700050F8041C41F0807140F8041C50F8041C33
:100380008901FBD5016821F003010160016841F09A
:1003900002010160016801F00C010829FAD102B0E4
:1003A0007047000080B541F20000C4F2020001680D
:1003B000002241F0010101604168CFF6FF021140C7
:1003C000416001684FF6FF72CFF6F662114001609E
:1003D000016821F480210160416821F4FE0141603F
:1003E0004FF41F018160FFF779FF4EF60850CEF2FF
:1003F00000004FF00061016080BD00002DE9F04772
:1004000042F61048C4F20108B8F80000C00708BF5F
:10041000BDE8F0874FF60840C0F60100FFF728FF5F
:1004200040F29A01C2F20001088000F043FB40F262
:100430006800C2F20000018840F28C00C2F20000A5
:1004400040F2A40A40F278090180C2F2000AC2F226
:100450000009BAF90020B9F8001040F284070BB285
:10046000D218C2F2000740F2880648BF5242642AFE
:10047000A6BF0088084400203880C2F20006306819
:1004800001F07AF80446B7F900000D4600F062FE6C
:1004900041F6695247F21053C4F65552C3F60F7332
:1004A00000F082FE22462B4600F054FC00F020FCB7
:1004B000306001F0EFF840F28601C2F200010880DE
:1004C00040F26A00C2F20000018840F29800C2F2D5
:1004D00000000180B0F90020B9F8021040F28E0748
:1004E0000BB2D218C2F2000740F2940648BF524243
:1004F000642AA6BF0088084400203880C2F20006A3
:10050000306801F039F80446B7F900000D4600F0F4
:1005100021FE41F6695247F21053C4F65552C3F614
:100520000F7300F041FE22462B4600F013FC00F052
:10053000DFFB306001F0AEF840F26C02C2F2000264
:1005400040F290011288C2F200010880AAF800204F
:10055000BAF90010B9F8040040F29C0702B28918F9
:1005600048BF4942C2F2000740F2A0060A29A6BFCE
:10057000BAF80010084400203880C2F20006306843
:1005800000F0FAFF0446B7F900000D4600F0E2FD66
:1005900041F6695247F21053C4F65552C3F60F7331
:1005A00000F002FE22462B4600F0D4FB00F0A0FB38
:1005B000306000F063FB01F06DF840F29E01C2F282
:1005C00000010880B8F8000020F00100A8F8000041
:1005D000BDE8F08743F60C00C4F2010030F80C1CB3
:1005E00089061DD530F8081C40F28303CAB2C2F256
:1005F00000037A2A19700FD140F29E03C2F2000361
:1006000040F27F011B88C2F2000147F67A220A807D
:100610004B807A2120F8081C018841F0800101807C
:1006200030F80C1C090658BF704740F27E01C2F238
:1006300000010A78531CDAB2042A0B7006D100229A
:100640000A70018821F080010180704740F27F012B
:10065000C2F20001895C20F8081C7047C1B200F0AA
:100660001F00012202FA00F04EF20012CEF2000248
:1006700042EAD10121F0030108607047E422C0F290
:10068000E002090162F31F20017070474EF60C5022
:10069000CEF2000001684FF6FF02114041F0806188
:1006A00041F0FD710160704745F21441C4F2000150
:1006B00021F8040C08888007FCD5088888887047D2
:1006C00080B500F025F800F013F800F085F800F090
:1006D000AFF800F093F800F02FF800F0C3F800F046
:1006E00057F84FF4FA6000F0D1F800F04FF980BDF0
:1006F00041F21800C4F20200016841F001010160FA
:100700000420C4F20100016841F002010160704759
:1007100041F21800C4F20200016841F008010160D2
:1007200040F60440C4F20100016800210160016844
:1007300041F0FF010160704741F21C00C4F2020069
:10074000016841F40011016045F20040C4F200006C
:10075000018841F40041018001886FF3DF3101809D
:10076000818841F024018180818B41F0B401818333
:1007700025210184018841F001010180018841F4B3
:1007800080610180818841F4807181807047000020
:1007900080B582B00DF10702D0207521012300F051
:1007A0006FF99DF80700682813D1D0206B21002233
:1007B00000F0D8F9D0201921072200F0D3F9D02079
:1007C0001C21082200F0CEF9D0201B21182200F0B5
:1007D000C9F902B080BD000080B5FFF757FF1920AE
:1007E0000221FFF74BFF1920FFF738FF25200121D9
:1007F000FFF744FF2520FFF731FF80BD41F21800CD
:10080000C4F20200016841F40061016042F6004058
:10081000C4F2010040F2E731818547210185818AD8
:1008200041F001018182018841F00101018070479E
:1008300041F21C00C4F20200016841F004010160B1
:1008400040F60000C4F2000040F2CF7181854721DC
:100850000185818A41F001018182018841F0010115
:100860000180704741F21800C4F20200016841F4AF
:100870008041016043F60800C4F2010042F22C01FD
:10088000818040F2712101807047000078B140F60C
:100890002401C4F20001002203E000BF013808BFB8
:1008A00070470A800B88B3F57A7FFBD1F6E7704773
:1008B0002DE9F04142F60C48C4F20108B8F80020D6
:1008C000044622F00100A8F80000C1B101292AD095
:1008D00002293CD1002C3CD040F26C070026C2F229
:1008E0000007002500F0E6F8B7F9000005440520F0
:1008F000FFF7CCFF0136F0B2A042F3D32EE054B3A1
:1009000040F268070026C2F20007002500F0D2F886
:10091000B7F9000005440520FFF7B8FF0136F0B233
:10092000A042F3D31AE0C4B140F26A070026C2F233
:100930000007002500F0BEF8B7F9000005440520C7
:10094000FFF7A4FF0136F0B2A042F3D306E0002582
:1009500004E0002502E0002500E00025284600F024
:10096000F9FB054620460E4600F00BFC02460B46FE
:100970002846314600F096FA00F0BAF9B8F80010AF
:1009800041F00101A8F80010BDE8F0812DE9F04325
:1009900081B04FF60044C0F6010442F60C482046F0
:1009A000C4F20108FFF740FC2046FFF761FC40F26B
:1009B0007807C2F20007251D38802846FFF758FC4B
:1009C00004F1080678803046FFF752FC4FF6FF71BD
:1009D0008842B88014D03888884211D078888842FC
:1009E0000ED040F27400C2F2000003210160B8F89A
:1009F000000040F00100A8F8000001B0BDE8F0835D
:100A000064200021FFF754FF00F044FE404238808C
:100A100064200121FFF74CFF00F03CFE404278804B
:100A2000642002214FF00209FFF742FF00F032FE7E
:100A30004042B8802046FFF7F7FBB7F90010204688
:100A4000FFF728FCB7F902102846FFF723FCB7F997
:100A500004103046FFF71EFCB8F8000040F001001B
:100A6000A8F8000040F27400C2F20000C0F8009044
:100A700001B0BDE8F0830000FFF722FEFEE70000B2
:100A8000F0B581B01C4615460E46074600F0CEF87C
:100A90003846FFF709FE304600F0E2F800F0C6F8ED
:100AA000781CC0B22946224600F06EF800F0CEF85D
:100AB00001B0F0BD70B582B00DF10202D02043212B
:100AC0000623FFF7DDFFBDF8020040F2680201BA1D
:100AD000BDF80460090CC2F20002118031BA40F284
:100AE0006A02BDF80650090CC2F20002118029BA50
:100AF00040F26C02090CC2F20002C0BA118000F090
:100B000029FB46F26664C4F230044FF06632234695
:100B100000F0C8F900F0ECF840F26001C2F2000108
:100B20000860F0BA00F016FB4FF06632234600F082
:100B3000B9F900F0DDF840F26401C2F2000108608A
:100B4000E8BA00F007FB4FF06632234600F0AAF93E
:100B500000F0CEF840F27001C2F20001086002B06D
:100B600070BD000070B514460D46064600F05EF8F4
:100B70003046FFF799FD284600F072F8204600F055
:100B80006FF800F063F870BD80B545F20043C4F221
:100B90000003012A188213D1988A8007FCD518888F
:100BA00020F480601880988A188B188840F40070B0
:100BB000188000BF988A4006FCD5188A087080BD4E
:100BC000988A8007FCD5988A188B9446032A13D3F9
:100BD000988A4006FCD5B3F810E0A2EB0C0001F8AF
:100BE00000E01888BCF1030F40F48060ACF1010C08
:100BF0001880EDDC4FF0020C988A4006FCD5B3F863
:100C000010E0A2EB0C0001F800E01A8822F48062E8
:100C10001A801A8842F400721A8000BF9A8A52061B
:100C2000FCD51A8A0844427080BD000045F200409D
:100C3000C4F20000018841F480610180018841F420
:100C400080710180818AC907FCD0704745F200405D
:100C5000C4F20000018841F4007101807047000077
:100C600045F21441C4F200010A881206FCD521F8AD
:100C7000040C00BF08884007FCD5704770B50546D6
:100C800000F06EFD04460146284600F099FD15F07F
:100C9000004F4FF07F410ED0B0F13F4F28BFB1EB76
:100CA000400F0ED2B0F17C5F1DDDB1EB400F1AD3C7
:100CB00013E0044617E0B0F13F4F08D9B1EB400F05
:100CC00005D34FF07E51204600F07AFDF1E7B0F1F8
:100CD0007C5F08DBB1EB400F05D34FF07E5120461F
:100CE00000F076FCE5E7284664F31E0070BD0000C6
:100CF00021F0004201F00043A2F16052B2F5801FE2
:100D000028BFD2F17F6C0BD95FEA001C43EAC20214
:100D100042EB507018BF704728BF20F001007047A9
:100D2000B2F5801FBCBF184670474FEA410C1CF556
:100D3000001F02D2084600F00EBD70B500F0DEFACA
:100D400000000089FFF7F6BF4FF00040A0F58000DB
:100D50007047000010B591EA030F48BF83F00043CD
:100D600000F12883841A71EB030C05D2121943EBAE
:100D70000C03001B61EB0C014FEA1154A4EB135C54
:100D8000DFF81CE11EEA430F18BF9EEA445F73D0F0
:100D900021EA045123EA0E0343F48013DCF1200E10
:100DA00032D322FA0CFE10EB0E0023FA0CFE41EBBC
:100DB0000E01CCF1200E03FA0EFE10EB0E00CCF16A
:100DC000200E51F10001B1F5801F32D201EB045128
:100DD00012FA0EF2BDE8104058BF7047401C38BFF1
:100DE0005FEA420218BF7047002814BF20F00100DC
:100DF00041F100014FEA410313F5001F38BF70476E
:100E0000A1F1C04100F0C8BA012A43EB0302ACF1E2
:100E1000200CDCF11F0E32BF4FF0000E23FA0CF352
:100E200010EB030041EB0451B4EB115FD0D0A1EB08
:100E3000045101F58011490801EB04515FEA3000CB
:100E40000ED350F1000038BF12FA0EFE08D1BDE8F3
:100E50001040C9E7401C38BF5FEA4202CAD1C3E76D
:100E6000BDE810404FEA410313F5001F38BF70473B
:100E7000A1F1C04100F090BA9EEA445F08D011EAA7
:100E80005E0FBDE8104004BF01F000410020704734
:100E9000BDE8104070B500F031FA00BF64FBBE3E03
:100EA0000000E0FF2DE9C04130B4DFF8A0C23CEA09
:100EB000111418BF3CEA131400F0EC801CEA111462
:100EC00081EA030544EAD57418BF1CEA131500F043
:100ED000C780A4EB050404F17F7404F500344FF0DF
:100EE000004545EAC12145EAC32341EA505143EA9E
:100EF00052534FEAC0204FEAC222994208BF9042A3
:100F000000F09C804FEA13650FF24016765D4FEAC1
:100F1000134506FB05F7C7F1807706FB07F74FEA95
:100F2000D737A7FB03687642A7FB06CEC8F5803803
:100F300038BFA8F1010807FB08E6A6FB028C4FF0BA
:100F4000000EE6FB03CEDCF1000CCEF1004E38BF04
:100F5000AEF1010EA6FB0C584FF00007E6FB0E8722
:100F6000A1FB08C6A0FB07CE16EB0E064FF000054E
:100F700045F10005E1FB076515F1E04E7EBFA4F5E4
:100F800080345FEA46066D4116F1800745F10005A1
:100F90004FEA172747EA05674FEA15254FEA066625
:100FA000A6F1DE46B6F1805F1FD9384605EBC47165
:100FB00024F0010C01EB0C11BCF1FE6F02D8F0BC67
:100FC000BDE8008124425CBF01F5801E9EEAC47F1B
:100FD00002D4F0BCBDE80081244238D4A1F1C04164
:100FE000F0BCBDE8004100F0D7B94FEAD02040EA9C
:100FF00041504FEAD1214FEAD22242EA43524FEA0E
:10100000D323A7FB028607FB036605FB02661EEAE5
:101010000E0F58BFA6EB0056B6EB00564FEA520E25
:101020004EEAC37E18EB0E0E56EB530EBDD518EBF1
:1010300002085E417F1C55F10005B6E74FF48015AC
:101040004FF000074FF000064FF00008ADE701F148
:10105000C04101F000414FF00000F0BCBDE800814C
:101060000CEA131511EA0C1F00D00CE013EA0C1F58
:1010700000F025804FF0000081EA030101F00041FB
:10108000F0BCBDE80081F0BCBDE8004181EA03018D
:1010900000F082B9F0BCBDE8004170B500F02EF957
:1010A000097EFC3E00F007B84FF0000081EA030122
:1010B00001F00041704781EA030100F06DB9F0BC16
:1010C000BDE8004122494FF000007047FFFDFBF9E9
:1010D000F7F5F4F2F0EEEDEBE9E8E6E4E3E1E0DE6B
:1010E000DDDBDAD8D7D5D4D3D1D0CFCDCCCBCAC8DD
:1010F000C7C6C5C4C2C1C0BFBEBDBCBBBAB9B8B704
:10110000B6B5B4B3B2B1B0AFAEADACABAAA9A8A8F6
:10111000A7A6A5A4A3A3A2A1A09F9F9E9D9C9C9BC4
:101120009A9999989797969595949393929191906F
:101130008F8F8E8E8D8C8C8B8B8A89898888878700
:101140008685858484838382828181800000FF0775
:101150000000F87F10F0004248BF4042B0FA80F330
:1011600010FA03F10AD0C3F11D0303F5806302EB0B
:1011700003524FEA415002EBD12170474FF000007B
:101180007047B0FA80F310FA03F10AD0C3F11D03DF
:1011900003F580634FEA03524FEA415002EBD1213D
:1011A00070474FF00000704770B5DFF848C11CEA87
:1011B000111E1EBF1CEA13159EEA0C0F95EA0C0FB8
:1011C00000F06F8081EA03044EEAD47EAE4421EA47
:1011D0004C1123EA4C1341F4801143F48013AEF117
:1011E0007F7EA1FB024CA0FB0365361955EB0C0575
:1011F000A1FB034C4CF10003A0FB021C16EB0C06F8
:10120000654153F10003094218BF46F0010613F48B
:10121000007F0BD14FEA03314FEA053041EA155107
:1012200040EA165034036FF003020AE04FEAC3218C
:101230004FEAC52041EA555140EA5650F4026FF09A
:10124000020202EB2E4201EB025585EACE710AD072
:101250005FEA440C18BF24F0004450F1000041F153
:10126000000120EAD47040F2FE7C624500D270BDDD
:10127000A84214BF4FF080444FF04044002E08BFF6
:101280000024BEF1806FA8BFA1F1C041BDE870404D
:1012900080F2828001F1C04101F000414FF0000076
:1012A00070470CEA13159EEA0C0F18BF95EA0C0F55
:1012B00006D081EA030E4FF000000EF0004170BD31
:1012C00000F01CF88900013E00F007B800F009B8F2
:1012D0004FEA430C5FEA5C5C08D081EA030100F04E
:1012E0005BB84FEA410C5FEA5C5CF6D102494FF013
:1012F000000070470000FF070000F87F0EF1020EAB
:101300002EF0030E5EF8046B364205D4012A43EB3F
:10131000030515F5001F12D8012841EB010C1CF53F
:10132000001F0CD80ED14FEAD17C0CEB4C0C0CF109
:10133000020C15F5001F08BF4CEBD37C04E04FF006
:10134000080C01E04FEAD37C0CEB4C0526FA05F6BD
:1013500006F00706B6F1040C06D20EEB860CBDE8CB
:1013600070404CF0010C6047DFE80CF0090B020202
:101370004FF00041A1F500214FF0000070BD19466B
:101380001046012851EB010418BFD4F5001484BFA6
:10139000002001F0004170BD0808A0F500114FEADF
:1013A0003101704710B591EA030F48BF83F0004345
:1013B0003FF5D8AC841A71EB030C07D28CF0004CCB
:1013C000121943EB0C03001B61EB0C014FEA1154A3
:1013D000A4EB135CDFF89CE11EEA430F18BF9EEA02
:1013E000445F00F0B08021EA045123EA6E035242C8
:1013F000C3EB6E0338BF5B1EDCF1200E25D322FA4F
:101400000CFE10EB0E0043FA0CFE41EB0E01CCF18A
:10141000200E03FA0EFE10EB0E00CCF1200E51F15F
:10142000000129D401EB045112FA0EF2BDE810407C
:1014300058BF7047401C1CBFB2F1004F70470028D6
:101440000CBF491C20F00100704712EB020E43EB69
:10145000030218BF4FF0010E4EEA4202ACF1200C1D
:10146000DCF11E0E54D943FA0CFE10EB0E00CCF149
:101470001E0E51F1FF31D5D50EF1010E12FA0EFEFE
:10148000404141EB010101EB445C5FEA5C5C10D937
:1014900001EB045110EBDE7038BFBEF1004FBDE828
:1014A000104018BF704700280CBF491C20F00100F5
:1014B000704730D24FEAD42C24F4006411F50011A7
:1014C0001BD0B1FA81F20B3AA41AA41ED2F1200368
:1014D000914030FA03F31943904001EBCC7101EBDA
:1014E0000451002CBDE81040A8BF704701F1C04175
:1014F00001F000414FF000007047B0FA80F310FA9D
:1015000003F100D110BDE41A173C4805C90AE4E70D
:1015100001EB045110BD49104FEA300001EB0451BA
:10152000BDE8104002E04FF0000170474A0008BFDC
:101530000042F8D0B2F5001F28BF704701F000410B
:101540004FF0000070479EEA445F07D011EA5E0F3B
:10155000BDE8104004BF002100207047BDE81040E6
:1015600070B5FFF7CBFE00BF40DFF63E104683F0BC
:10157000004170470000E0FF43004FEAD30C4FEA00
:101580003C0C43401FBF40070CF1605113F0FE4F6D
:1015900070471CF0006F03D10CF000410020704731
:1015A0000CF0004343EA507040EACC0010B500F064
:1015B0008CF800BF000000924FEA0001FFF7ECBE7C
:1015C0004FF00041A1F500214FF0000070470000EE
:1015D00090EA010F48BF81F0004100F1F880421A03
:1015E0003CBF801A89184FEAD052A2EBD1534FF07A
:1015F0007F4C1CEA410F18BF9CEA026F00F03B8051
:101600004FF0004C4CEA00204CEA012121FA03FC87
:1016100010EB0C0C1ED202F1FF325FEA1C2040EBF3
:10162000C25038BF70471CF07F0F4FEA400C18BF04
:10163000BCF17F4F38BF7047C3F12003994008BF0A
:1016400020F00100BCF17F4F38BF7047A0F1C040CF
:1016500000F081B84FEA3C00000A40EBC25028BFBE
:101660001CF0FF0F4FEA400CE6D018BFBCF17F4FD3
:1016700038BF7047EAE79CEA026F05D010EA5C0FBA
:1016800008BF00F00040704710B500F01EF800BF22
:1016900064FBBE3E41000B0ED3F19E0208D950F40C
:1016A00000034FEA032323FA02F048BF4042704789
:1016B00010B500F00AF800BF49922480002070475E
:1016C0006FF0004282EA200070470EF1020E2EF009
:1016D000030E5EF8044B244204D44FEA4102B2F1F7
:1016E0007F4F11D84FEA4003B3F17F4F0CD80ED192
:1016F0004FEAD07C0CEB4C0C0CF1020CB2F17F4F9A
:1017000008BF4CEBD17C04E04FF0080C01E04FEA3D
:10171000D17C0CEB4C0324FA03F404F00704B4F17D
:10172000040C06D20EEB840CBDE810404CF0010C0A
:101730006047DFE80CF0070802024FF00040A0F518
:10174000800010BD0846420018BFD2F1807288BFE9
:1017500000F0004010BDFF2141EAD050C0057047A5
:101760005FEA400C5FEA1C6CBCF17F0314D4D3F138
:10177000170240F31C804FF0010C0CFA02FCACF194
:101780000103034020EA0300B3EB5C0208BF10EA48
:101790000C0F88BF60447047B3F1FF3F28BF5FEA7A
:1017A000002C00F0004088BF40F07E507047BCF134
:1017B000FF0FB8BF704710B5FFF787FF40DBB6BE1D
:1017C00090EA010F48BF81F000413FF508AF421A8F
:1017D00004D882F00042A0EB020011444FEAD0523C
:1017E000A2EBD1534FF07F4C1CEA410F18BF9CEA8B
:1017F000026F4AD04FF0004C4CEA00204CEA012125
:1018000021FA03FCB0EB0C0C0FD412F0FE0F36D013
:101810005FEA4C001DD5001240EBC25038BF704744
:101820001CF03F0F18BF70470BE05FEA1C20A2F1CD
:10183000010240EBC25038BF70471CF07F0F18BF49
:101840007047C3F12003994014BF401E20F00100EF
:1018500070474FEA1223800808BF7047B0FA80FC37
:10186000A2EB0C02CCF1280C60FA0CF093EA122FD8
:1018700004BF00EBC25070474FEAC3707047130AB1
:101880005FEADC1008BF7047F6E79CEA026F04D0FD
:1018900010EA5C0F08BF0020704710B5FFF715FF76
:1018A00040DFF63E81F0004070470000BC180008A1
:0C18B00000000020A8060000280100082D
:040000050800016D81
:00000001FF
